S01300002E2F44656275672F6C6162352E7331390A
S315200000000248854600F032F9FEE7C04600C00120CE
S3152000001080B582B000AF786008001100FB1C021C7E
S315200000201A70BB1C0A1C1A707B68FA1C12781A718B
S315200000307B68BA1C12785A71C046BD4602B080BD94
S3152000004080B582B000AF786039607B68DB687A68FB
S31520000050100098477B689B795BB2DAB27B681B7984
S315200000605BB2DBB2D318DBB25AB27B689A717B687B
S31520000070DB795BB2DAB27B685B795BB2DBB2D31831
S31520000080DBB25AB27B68DA717B689B795BB2002B54
S3152000009008DC7B681B795BB2DBB25B42DBB25AB20F
S315200000A07B681A717B689B795BB21A007B681B6838
S315200000B05B78D318802B02DD314B01221A707B68C6
S315200000C09B795BB21A007B681B685B78D3183A6809
S315200000D0927952B2934231DD7B689B795BB21A00EA
S315200000E03B689B795BB219003B681B685B78CB1831
S315200000F09A4223DA7B68DB795BB21A007B681B683D
S315200001009B78D3183A68D27952B2934216DD7B682F
S31520000110DB795BB21A003B68DB795BB219003B687E
S315200001201B689B78CB189A4208DA7B681B795BB2EE
S31520000130DBB25B42DBB25AB27B681A717B68DB7931
S315200001405BB2002B09DD7B68DB795BB21A007B682A
S315200001501B689B78D318402B08DD7B685B795BB2E4
S31520000160DBB25B42DBB25AB27B685A717B689B6812
S315200001707A6810009847C046BD4602B080BDC0468A
S31520000180BA0C002080B582B000AF786039607B68F9
S31520000190DB687A68100098477B689B795BB2DAB295
S315200001A07B681B795BB2DBB2D318DBB25AB27B68B1
S315200001B09A717B68DB795BB21A007B681B689B7837
S315200001C0D3183E2B04DD7B685B795BB2002B16DCF3
S315200001D07B68DB795BB2002B04DC7B685B795BB2E6
S315200001E0002B0CDB7B68DB795BB2DAB27B685B7950
S315200001F05BB2DBB2D318DBB25AB27B68DA717B68AA
S315200002009B687A68100098477B6800225A71C0461E
S31520000210BD4602B080BD80B500AF104B104A1A60B3
S315200002200E4B0F4A9A600D4B00229A800D4B0E4AB8
S315200002301A600C4B9B880B4B00229A80094B094A6B
S31520000240D2681204120CDA60064B064AD268AA213A
S3152000025009040A43DA60C046BD4680BD001002404C
S3152000026055555555000C02405555005580B582B060
S3152000027000AFFB1D02221A70FB1D1B780133DBB277
S31520000280180000F02FF8FB1D1A78FB1D013A1A7092
S31520000290F2E780B582B000AF0200FB1D1A700B4B4F
S315200002A000225A750949094B5B7DDBB25AB2FB1D08
S315200002B01B7804330120984003005BB213435BB2E2
S315200002C0DBB24B75C046BD4602B080BD000C024075
S315200002D080B500AF024B5B7CDBB21800BD4680BD0B
S315200002E0000C024090B587B000AF0200FB1D1A70CB
S315200002F0FB1D1B78180000F0D7F9284B7B61284B93
S315200003003B61FFF788FF00F0AAFB3B695B69386910
S315200003100122022198477B695B69786900220021C6
S315200003209847204B1B78012B2CD00F23FC1800F06C
S3152000033087F8030023700F23FB181B78012B07D1A6
S315200003407B695B69032252427869002198470AE05B
S315200003500F23FB181B78052B05D17B695B69786910
S315200003600322002198473B691B6979693A69100085
S3152000037098477B691B6939697A691000984700F0AC
S31520000380B1F9CEE7C046074B00221A703B694022DE
S315200003909A71C046BD4607B090BDC046D40C002019
S315200003A0BC0C0020BA0C002090B583B000AF234BC4
S315200003B07B60FFF730FF00F052FB7B685B69786853
S315200003C0002200219847FC1C00F03AF80300237015
S315200003D0FB1C1B78012B07D17B685B6903225242E9
S315200003E078680021984720E0FB1C1B78042B07D156
S315200003F07B685B690322514278680022984714E0A3
S31520000400FB1C1B78052B06D17B685B697868032269
S315200004100021984709E0FB1C1B78062B05D17B6839
S315200004205B6978680022032198477B681B69796895
S315200004307A681000984700F055F9C4E7BC0C0020F4
S3152000044090B583B000AF3B1DFF221A70FB1D002222
S315200004501A7036E0FB1D1B781800FFF71AFFBC1D2B
S31520000460FFF736FF030023707B1D00221A701FE062
S31520000470FB1CBA1D127801210A401A70FB1C1B783E
S31520000480002B0BD0FB1D1B789B00D9B23B1D7A1D80
S3152000049012788A181A703B1D1B7818E0BB1DBA1DEE
S315200004A0127852081A707B1D1A787B1D01321A7039
S315200004B07B1D1B78032BDBD9FB1D1A78FB1D013214
S315200004C01A70FB1D1B78032BC4D93B1D1B78180003
S315200004D0BD4603B090BD80B582B000AF0A4B7B60AD
S315200004E0FFF799FE00F0BBFA7B685B69786801220A
S315200004F0042198477B681B6979687A6810009847B9
S3152000050000F0F0F8F6E7C046BC0C002080B582B0BB
S3152000051000AFFFF780FE00F0A2FA00F0CBFA00232E
S315200005207B6009E07B68DBB201220A21180000F01B
S31520000530F4FA7B6801337B607B687F2BF2D900233A
S315200005407B6009E07B68DBB2012219000A2000F0FB
S31520000550E4FA7B6801337B607B683F2BF2D901206C
S3152000056000F007F900237B6009E07B68DBB20022FC
S315200005700A21180000F0D1FA7B6801337B607B6882
S315200005807F2BF2D900237B6009E07B68DBB2002257
S3152000059019000A2000F0C1FA7B6801337B607B6872
S315200005A03F2BF2D9C046BD4602B080BD80B586B08D
S315200005B000AF78607B681B683B610F23FB183A69A4
S315200005C012781A7000237B6125E00C23F8183A690B
S315200005D07B695B000321D3185B18190002231A00DC
S315200005E000F062FB7B689B795BB2DAB20C23FB18C6
S315200005F01B78D318D8B27B68DB795BB2DAB20C23CE
S31520000600FB185B78D318DBB20022190000F085FABC
S315200006107B6901337B610F23FB181A787B699A4229
S31520000620D3DCC046BD4606B080BD80B586B000AFDF
S3152000063078607B681B683B610F23FB183A69127848
S315200006401A7000237B6125E00C23F8183A697B6930
S315200006505B000321D3185B18190002231A0000F04F
S3152000066023FB7B689B795BB2DAB20C23FB181B78E1
S31520000670D318D8B27B68DB795BB2DAB20C23FB18CD
S315200006805B78D318DBB20122190000F046FA7B69A9
S3152000069001337B610F23FB181A787B699A42D3DCDE
S315200006A0C046BD4606B080BD80B582B000AF020010
S315200006B0FB1D1A70FB1D1B78032B07D80749FB1D52
S315200006C01B78074AD35C9BB28B8202E0034B002245
S315200006D09A82C046BD4602B080BDC046000C02408C
S315200006E0940D002080B582B000AF00237B600E4BB6
S315200006F000221A700C4B00229A700B4B00229A6033
S31520000700094B2A225A60084B05221A70064B9B6811
S315200007107B60C046044B9B78034B00221A70C04670
S31520000720BD4602B080BDC04610E000E080B500AFF7
S31520000730FFF7D8FFFFF7D6FFC046BD4680BD80B580
S3152000074084B000AF78600023FB600AE0FFF7CAFFA1
S31520000750FFF7C8FFFFF7C6FFFFF7C4FFFB680133AB
S31520000760FB60FA687B689A42F0D3C046BD4604B067
S3152000077080BD80B582B000AF78607B68FA22920097
S3152000078053431800FFF7DBFFC046BD4602B080BDCD
S3152000079080B582B000AF0200FB1D1A700A490A4BD1
S315200007A01B7DDAB2FB1D1B781343DBB20B75064AA1
S315200007B0054B1B7DDBB204218B43DBB21375C04690
S315200007C0BD4602B080BDC0460010024080B582B052
S315200007D000AF0200FB1D1A700C490C4B1B7DDBB2CF
S315200007E05BB2FA1D127852B2D24352B213405BB2B8
S315200007F0DBB20B75054A054B1B7DDBB204218B430F
S31520000800DBB21375C046BD4602B080BD0010024063
S3152000081080B582B000AF0200FB1D1A701820FFF7CA
S31520000820D5FFFB1D1B781800FFF7B2FFC046BD465B
S3152000083002B080BD80B582B000AF4020FFF7C6FF72
S31520000840154B164A1A600220FFF7A2FF0120FFF778
S31520000850BDFFFFF76BFF4020FFF79AFFFFF766FF0C
S315200008600D4B5B7CDAB2FB1D7F218A431A70402038
S31520000870FFF7ACFFFFF75AFFFB1D1B78002B00D0BC
S31520000880E9E7C0464020FFF783FF034B044A1A607E
S31520000890C046BD4602B080BD00100240555500003E
S315200008A05555555580B584B000AF0200FB1D1A7012
S315200008B04020FFF78BFF1B4B1B4A1A600320FFF7D4
S315200008C067FFFB1D1B781800FFF7A2FFFFF72EFF1F
S315200008D04020FFF75DFFFFF729FF124A0F23FB1881
S315200008E0527C1A704020FFF771FF0E4B0F4A1A6098
S315200008F0FB1D1B78082B04D10820FFF789FFFFF783
S3152000090099FFFB1D1B78102B04D11020FFF780FFC9
S31520000910FFF790FF0F23FB181B781800BD4604B085
S3152000092080BDC0460010024055550000555555550E
S3152000093080B582B000AF0200FB1D1A70FB1D1B782C
S315200009401800FFF7AFFFFB1D1B781800FFF7AAFF63
S3152000095003001800BD4602B080BD80B582B000AF4E
S315200009600200FB1D1A70BB1D0A1C1A70194AFB1DBA
S315200009701B785375BB1D1B781800FFF749FFFFF73F
S31520000980D5FE4020FFF704FFFFF7D0FE4020FFF7FB
S315200009901DFFBB1D1B780822134004D00820FFF73B
S315200009A037FFFFF747FFBB1D1B781022134004D0EB
S315200009B01020FFF72DFFFFF73DFF064B00225A754B
S315200009C04020FFF7E5FE0020FFF722FFC046BD4688
S315200009D002B080BD0010024080B582B000AF020098
S315200009E0FB1D1A70BB1D0A1C1A704020FFF7EEFE75
S315200009F0BB1D1B781800FFF70BFF0320FFF7E6FE51
S31520000A00BB1D1A78FB1D1B7811001800FFF7A5FFE8
S31520000A10C046BD4602B080BD80B582B000AF0200A0
S31520000A20FB1D1A70BB1D0A1C1A704020FFF7CEFE54
S31520000A30BB1D1B781800FFF7EBFE0120FFF7A8FE71
S31520000A400220FFF7C3FEBB1D1A78FB1D1B78110081
S31520000A501800FFF782FFC046BD4602B080BD80B5B4
S31520000A6000AF4020FFF794FE0120FFF768FE7820B4
S31520000A70FFF7ACFE0120FFF77CFE2020FFF788FE63
S31520000A8018213E20FFF7A8FF18213F20FFF7A4FFDB
S31520000A901821C020FFF7A0FF18214020FFF79CFF58
S31520000AA01821B820FFF798FF0020FFF7B1FEC046B7
S31520000AB0BD4680BD80B582B000AFFB1D00221A70F6
S31520000AC023E0FB1D1B78482252421343DBB2182138
S31520000AD01800FFF781FF18214020FFF77DFFBB1D7F
S31520000AE000221A7008E018210020FFF795FFBB1D91
S31520000AF01A78BB1D01321A70BB1D1B783F2BF2D909
S31520000B00FB1D1A78FB1D01321A70FB1D1B78072B63
S31520000B10D7D9C046BD4602B080BD90B585B000AFDE
S31520000B20040008001100FB1D221C1A70BB1D021CAC
S31520000B301A707B1D0A1C1A70FB1D1B78802B00D98E
S31520000B40A9E0FB1D1B78002B00D1A4E0BB1D1B7860
S31520000B50402B00D9A1E0BB1D1B78002B00D19CE0C7
S31520000B60BB1D1B78013B002B00DA0733DB101A0074
S31520000B700C23FB181A70BB1D1B78013B494A1340F6
S31520000B8004D5013B08225242134301331A000123A4
S31520000B9093401A000F23FB181A707B1D1B78002B1D
S31520000BA006D10F23FB180F22BA181278D2431A70D7
S31520000BB0FB1D1B78402B0AD90E23FB1810221A7016
S31520000BC00D23FB18FA1D1278413A1A7009E00E23FC
S31520000BD0FB1808221A700D23FB18FA1D1278013A09
S31520000BE01A700D23FB181B7840221343DAB20E230A
S31520000BF0FB181B7819001000FFF7EEFE0C23FB18DC
S31520000C001B78482252421343DAB20E23FB181B7874
S31520000C1019001000FFF7E0FE0B23FC180E23FB182B
S31520000C201B781800FFF784FE030023700D23FB18A2
S31520000C301B7840221343DAB20E23FB181B781900C7
S31520000C401000FFF7C9FE7B1D1B78002B0AD00F234F
S31520000C50FB180F22B9180B22BA18097812780A4302
S31520000C601A7009E00F23FB180F22BA180B217918E6
S31520000C70127809780A401A700E23FB181A780F2367
S31520000C80FB181B7811001800FFF7C6FE18213F201D
S31520000C90FFF7A2FE02E0C04600E0C046BD4605B012
S31520000CA090BDC04607000080002310B59A4200D1AF
S31520000CB010BDCC5CC4540133F8E70000EC0C0020D6
S31520000CC0010176202B060020AD05002041000020E2
S31520000CD011000020400D002001017E052B0600207A
S31520000CE0AD05002085010020110000200C04040021
S31520000CF001000201000101010201030200020102BA
S31520000D0002020303010302000000000000000000AD
S31520000D1000000000000000000000000000000000AD
S31520000D20000000000000000000000000000000009D
S31520000D30000000000000000000000000000000008D
S31520000D40200210000000010002000300040005003C
S31520000D5006000700080009000A000B000C000D0021
S31520000D600E000F010001010102010301040105012A
S31520000D7006010701080109010A010B010C010D01F9
S31520000D800E010F000000000000000000000000001F
S30D20000D90000000003F065B4F46
S70520000000DA
